{
  "_format": "hh-sol-artifact-1",
  "contractName": "ArtRegistry",
  "sourceName": "contracts/ArtRegistry.sol",
  "abi": [
    {
      "inputs": [
        {
          "internalType": "string",
          "name": "imageHash",
          "type": "string"
        }
      ],
      "name": "AlreadyRegistered",
      "type": "error"
    },
    {
      "inputs": [
        {
          "internalType": "string",
          "name": "fieldName",
          "type": "string"
        }
      ],
      "name": "EmptyField",
      "type": "error"
    },
    {
      "inputs": [
        {
          "internalType": "string",
          "name": "imageHash",
          "type": "string"
        }
      ],
      "name": "NotFound",
      "type": "error"
    },
    {
      "anonymous": false,
      "inputs": [
        {
          "indexed": true,
          "internalType": "string",
          "name": "imageHash",
          "type": "string"
        },
        {
          "indexed": true,
          "internalType": "address",
          "name": "owner",
          "type": "address"
        },
        {
          "indexed": false,
          "internalType": "string",
          "name": "title",
          "type": "string"
        },
        {
          "indexed": false,
          "internalType": "uint256",
          "name": "timestamp",
          "type": "uint256"
        }
      ],
      "name": "ArtworkRegistered",
      "type": "event"
    },
    {
      "inputs": [
        {
          "internalType": "address",
          "name": "_owner",
          "type": "address"
        }
      ],
      "name": "getArtworksByOwner",
      "outputs": [
        {
          "internalType": "string[]",
          "name": "",
          "type": "string[]"
        }
      ],
      "stateMutability": "view",
      "type": "function"
    },
    {
      "inputs": [
        {
          "internalType": "string",
          "name": "_imageHash",
          "type": "string"
        }
      ],
      "name": "isRegistered",
      "outputs": [
        {
          "internalType": "bool",
          "name": "",
          "type": "bool"
        }
      ],
      "stateMutability": "view",
      "type": "function"
    },
    {
      "inputs": [
        {
          "internalType": "string",
          "name": "_imageHash",
          "type": "string"
        },
        {
          "internalType": "string",
          "name": "_title",
          "type": "string"
        },
        {
          "internalType": "string",
          "name": "_artist",
          "type": "string"
        },
        {
          "internalType": "string",
          "name": "_ipfsURI",
          "type": "string"
        }
      ],
      "name": "registerArtwork",
      "outputs": [],
      "stateMutability": "nonpayable",
      "type": "function"
    },
    {
      "inputs": [],
      "name": "totalArtworks",
      "outputs": [
        {
          "internalType": "uint256",
          "name": "",
          "type": "uint256"
        }
      ],
      "stateMutability": "view",
      "type": "function"
    },
    {
      "inputs": [
        {
          "internalType": "string",
          "name": "_imageHash",
          "type": "string"
        }
      ],
      "name": "verifyArtwork",
      "outputs": [
        {
          "internalType": "string",
          "name": "title",
          "type": "string"
        },
        {
          "internalType": "string",
          "name": "artist",
          "type": "string"
        },
        {
          "internalType": "string",
          "name": "ipfsURI",
          "type": "string"
        },
        {
          "internalType": "address",
          "name": "owner",
          "type": "address"
        },
        {
          "internalType": "uint256",
          "name": "timestamp",
          "type": "uint256"
        }
      ],
      "stateMutability": "view",
      "type": "function"
    }
  ],
  "bytecode": "0x608060405234801561001057600080fd5b50611483806100206000396000f3fe608060405234801561001057600080fd5b50600436106100575760003560e01c8063b27aa2f21461005c578063c822d7f014610090578063dd67fa91146100c0578063df30ad90146100dc578063e4a233e11461010c575b600080fd5b61007660048036038101906100719190610ad6565b61012a565b604051610087959493929190610bf8565b60405180910390f35b6100aa60048036038101906100a59190610ad6565b6104be565b6040516100b79190610c7b565b60405180910390f35b6100da60048036038101906100d59190610c96565b6104f5565b005b6100f660048036038101906100f19190610d99565b61085e565b6040516101039190610ed2565b60405180910390f35b610114610976565b6040516101219190610ef4565b60405180910390f35b60608060606000806000866040516101429190610f4b565b908152602001604051809103902060060160009054906101000a900460ff166101a257856040517f607be5dc0000000000000000000000000000000000000000000000000000000081526004016101999190610f62565b60405180910390fd5b600080876040516101b39190610f4b565b90815260200160405180910390206040518060e00160405290816000820180546101dc90610fb3565b80601f016020809104026020016040519081016040528092919081815260200182805461020890610fb3565b80156102555780601f1061022a57610100808354040283529160200191610255565b820191906000526020600020905b81548152906001019060200180831161023857829003601f168201915b5050505050815260200160018201805461026e90610fb3565b80601f016020809104026020016040519081016040528092919081815260200182805461029a90610fb3565b80156102e75780601f106102bc576101008083540402835291602001916102e7565b820191906000526020600020905b8154815290600101906020018083116102ca57829003601f168201915b5050505050815260200160028201805461030090610fb3565b80601f016020809104026020016040519081016040528092919081815260200182805461032c90610fb3565b80156103795780601f1061034e57610100808354040283529160200191610379565b820191906000526020600020905b81548152906001019060200180831161035c57829003601f168201915b5050505050815260200160038201805461039290610fb3565b80601f01602080910402602001604051908101604052809291908181526020018280546103be90610fb3565b801561040b5780601f106103e05761010080835404028352916020019161040b565b820191906000526020600020905b8154815290600101906020018083116103ee57829003601f168201915b505050505081526020016004820160009054906101000a900473ffffffffffffffffffffffffffffffffffffffff1673ffffffffffffffffffffffffffffffffffffffff1673ffffffffffffffffffffffffffffffffffffffff168152602001600582015481526020016006820160009054906101000a900460ff161515151581525050905080602001518160400151826060015183608001518460a00151955095509550955095505091939590929450565b600080826040516104cf9190610f4b565b908152602001604051809103902060060160009054906101000a900460ff169050919050565b6000845103610539576040517fa69290e700000000000000000000000000000000000000000000000000000000815260040161053090611030565b60405180910390fd5b600083510361057d576040517fa69290e70000000000000000000000000000000000000000000000000000000081526004016105749061109c565b60405180910390fd5b60008251036105c1576040517fa69290e70000000000000000000000000000000000000000000000000000000081526004016105b890611108565b60405180910390fd5b6000846040516105d19190610f4b565b908152602001604051809103902060060160009054906101000a900460ff161561063257836040517f0a7a3d7c0000000000000000000000000000000000000000000000000000000081526004016106299190610f62565b60405180910390fd5b6040518060e001604052808581526020018481526020018381526020018281526020013373ffffffffffffffffffffffffffffffffffffffff1681526020014281526020016001151581525060008560405161068e9190610f4b565b908152602001604051809103902060008201518160000190816106b191906112d4565b5060208201518160010190816106c791906112d4565b5060408201518160020190816106dd91906112d4565b5060608201518160030190816106f391906112d4565b5060808201518160040160006101000a81548173ffffffffffffffffffffffffffffffffffffffff021916908373ffffffffffffffffffffffffffffffffffffffff16021790555060a0820151816005015560c08201518160060160006101000a81548160ff021916908315150217905550905050600160003373ffffffffffffffffffffffffffffffffffffffff1673ffffffffffffffffffffffffffffffffffffffff168152602001908152602001600020849080600181540180825580915050600190039060005260206000200160009091909190915090816107d991906112d4565b50600260008154809291906107ed906113d5565b91905055503373ffffffffffffffffffffffffffffffffffffffff16846040516108179190610f4b565b60405180910390207fbf9ac69b869cca545f73b3716cb73c0befffb1a20fef706f873c9b99f79dc224854260405161085092919061141d565b60405180910390a350505050565b6060600160008373ffffffffffffffffffffffffffffffffffffffff1673ffffffffffffffffffffffffffffffffffffffff168152602001908152602001600020805480602002602001604051908101604052809291908181526020016000905b8282101561096b5783829060005260206000200180546108de90610fb3565b80601f016020809104026020016040519081016040528092919081815260200182805461090a90610fb3565b80156109575780601f1061092c57610100808354040283529160200191610957565b820191906000526020600020905b81548152906001019060200180831161093a57829003601f168201915b5050505050815260200190600101906108bf565b505050509050919050565b60025481565b6000604051905090565b600080fd5b600080fd5b600080fd5b600080fd5b6000601f19601f8301169050919050565b7f4e487b7100000000000000000000000000000000000000000000000000000000600052604160045260246000fd5b6109e38261099a565b810181811067ffffffffffffffff82111715610a0257610a016109ab565b5b80604052505050565b6000610a1561097c565b9050610a2182826109da565b919050565b600067ffffffffffffffff821115610a4157610a406109ab565b5b610a4a8261099a565b9050602081019050919050565b82818337600083830152505050565b6000610a79610a7484610a26565b610a0b565b905082815260208101848484011115610a9557610a94610995565b5b610aa0848285610a57565b509392505050565b600082601f830112610abd57610abc610990565b5b8135610acd848260208601610a66565b91505092915050565b600060208284031215610aec57610aeb610986565b5b600082013567ffffffffffffffff811115610b0a57610b0961098b565b5b610b1684828501610aa8565b91505092915050565b600081519050919050565b600082825260208201905092915050565b60005b83811015610b59578082015181840152602081019050610b3e565b60008484015250505050565b6000610b7082610b1f565b610b7a8185610b2a565b9350610b8a818560208601610b3b565b610b938161099a565b840191505092915050565b600073ffffffffffffffffffffffffffffffffffffffff82169050919050565b6000610bc982610b9e565b9050919050565b610bd981610bbe565b82525050565b6000819050919050565b610bf281610bdf565b82525050565b600060a0820190508181036000830152610c128188610b65565b90508181036020830152610c268187610b65565b90508181036040830152610c3a8186610b65565b9050610c496060830185610bd0565b610c566080830184610be9565b9695505050505050565b60008115159050919050565b610c7581610c60565b82525050565b6000602082019050610c906000830184610c6c565b92915050565b60008060008060808587031215610cb057610caf610986565b5b600085013567ffffffffffffffff811115610cce57610ccd61098b565b5b610cda87828801610aa8565b945050602085013567ffffffffffffffff811115610cfb57610cfa61098b565b5b610d0787828801610aa8565b935050604085013567ffffffffffffffff811115610d2857610d2761098b565b5b610d3487828801610aa8565b925050606085013567ffffffffffffffff811115610d5557610d5461098b565b5b610d6187828801610aa8565b91505092959194509250565b610d7681610bbe565b8114610d8157600080fd5b50565b600081359050610d9381610d6d565b92915050565b600060208284031215610daf57610dae610986565b5b6000610dbd84828501610d84565b91505092915050565b600081519050919050565b600082825260208201905092915050565b6000819050602082019050919050565b600082825260208201905092915050565b6000610e0e82610b1f565b610e188185610df2565b9350610e28818560208601610b3b565b610e318161099a565b840191505092915050565b6000610e488383610e03565b905092915050565b6000602082019050919050565b6000610e6882610dc6565b610e728185610dd1565b935083602082028501610e8485610de2565b8060005b85811015610ec05784840389528151610ea18582610e3c565b9450610eac83610e50565b925060208a01995050600181019050610e88565b50829750879550505050505092915050565b60006020820190508181036000830152610eec8184610e5d565b905092915050565b6000602082019050610f096000830184610be9565b92915050565b600081905092915050565b6000610f2582610b1f565b610f2f8185610f0f565b9350610f3f818560208601610b3b565b80840191505092915050565b6000610f578284610f1a565b915081905092915050565b60006020820190508181036000830152610f7c8184610b65565b905092915050565b7f4e487b7100000000000000000000000000000000000000000000000000000000600052602260045260246000fd5b60006002820490506001821680610fcb57607f821691505b602082108103610fde57610fdd610f84565b5b50919050565b7f696d616765486173680000000000000000000000000000000000000000000000600082015250565b600061101a600983610b2a565b915061102582610fe4565b602082019050919050565b600060208201905081810360008301526110498161100d565b9050919050565b7f7469746c65000000000000000000000000000000000000000000000000000000600082015250565b6000611086600583610b2a565b915061109182611050565b602082019050919050565b600060208201905081810360008301526110b581611079565b9050919050565b7f6172746973740000000000000000000000000000000000000000000000000000600082015250565b60006110f2600683610b2a565b91506110fd826110bc565b602082019050919050565b60006020820190508181036000830152611121816110e5565b9050919050565b60008190508160005260206000209050919050565b60006020601f8301049050919050565b600082821b905092915050565b60006008830261118a7fffffffffffffffffffffffffffffffffffffffffffffffffffffffffffffffff8261114d565b611194868361114d565b95508019841693508086168417925050509392505050565b6000819050919050565b60006111d16111cc6111c784610bdf565b6111ac565b610bdf565b9050919050565b6000819050919050565b6111eb836111b6565b6111ff6111f7826111d8565b84845461115a565b825550505050565b600090565b611214611207565b61121f8184846111e2565b505050565b5b818110156112435761123860008261120c565b600181019050611225565b5050565b601f8211156112885761125981611128565b6112628461113d565b81016020851015611271578190505b61128561127d8561113d565b830182611224565b50505b505050565b600082821c905092915050565b60006112ab6000198460080261128d565b1980831691505092915050565b60006112c4838361129a565b9150826002028217905092915050565b6112dd82610b1f565b67ffffffffffffffff8111156112f6576112f56109ab565b5b6113008254610fb3565b61130b828285611247565b600060209050601f83116001811461133e576000841561132c578287015190505b61133685826112b8565b86555061139e565b601f19841661134c86611128565b60005b828110156113745784890151825560018201915060208501945060208101905061134f565b86831015611391578489015161138d601f89168261129a565b8355505b6001600288020188555050505b505050505050565b7f4e487b7100000000000000000000000000000000000000000000000000000000600052601160045260246000fd5b60006113e082610bdf565b91507fffffffffffffffffffffffffffffffffffffffffffffffffffffffffffffffff8203611412576114116113a6565b5b600182019050919050565b600060408201905081810360008301526114378185610b65565b90506114466020830184610be9565b939250505056fea26469706673582212209962ba7acea2a5bf56cda8825fefa6bbb2bb6053ee984031fc8b86bffa79849b64736f6c63430008130033",
  "linkReferences": {},
  "deployedLinkReferences": {}
}